:100000000C94F2000C940F010C940F010C940F014E
:100010000C940F010C940F010C940F010C940F0120
:100020000C940F010C940F010C940F010C940F0110
:100030000C940F010C940F010C940F010C940F0100
:100040000C940F010C940F010C940F010C940F01F0
:100050000C940F010C940F010C940F010C940F01E0
:100060000C940F010C940F0107634236B79BD8A77D
:100070001A39685618AEBAAB558C1D3CB7CC5763CD
:10008000BD6DEDFD753EF6177231BF000000803F7B
:1000900008000000BE922449123EABAAAA2ABECD97
:1000A000CCCC4C3E00000080BEABAAAAAA3E000009
:1000B0000000BF000000803F000000000008417801
:1000C000D3BB4387D1133D190E3CC3BD4282AD2B38
:1000D0003E68EC8276BED98FE1A93E4C80EFFFBE30
:1000E00001C4FF7F3F000000000000407A10F35A77
:1000F00000A0724E18090010A5D4E80000E8764868
:10010000170000E40B54020000CA9A3B000000E113
:10011000F505000080969800000040420F000000A6
:10012000A08601000000102700000000E803000086
:1001300000006400000000000A0000000000010050
:10014000000000002C76D888DC674F0823DFC1DF71
:10015000AE59E1B1B796E5E3E453C63AE651997674
:1001600096E8E6C28426EB898C9B62ED407C6FFCAE
:10017000EFBC9C9F40F2BAA56FA5F490055A2AF7F0
:100180005C936B6CF9676DC11BFCE0E40D47FEF5F9
:1001900020E6B500D0ED902E030094357705008061
:1001A000841E080000204E0A000000C80C333333C0
:1001B000330F986E12831141EF8D2114893BE65560
:1001C00016CFFEE6DB18D1844B381BF77C1D901D43
:1001D000A4BBE424203284725E228100C9F124ECA5
:1001E000A1E53D2711241FBECFEFD8E0DEBFCDBF74
:1001F00011E0A0E0B1E0EEE2FBE102C005900D925B
:10020000A432B107D9F721E0A4E2B1E001C01D9208
:10021000A832B207E1F70E9442060C94950D0C94A7
:100220000000299A85ED8A95F1F700002998089534
:1002300095B1937C95B984FD2A9A85FD2B9A86FD0C
:100240002C9A87FD2D9A299A85ED8A95F1F7000061
:1002500029980895CF93C82F0E9418018C2F82955A
:10026000807F0E9418012D98CF91089528980C94B2
:100270002A01289A0C942A01289883E30E942A01D3
:10028000289882E30E942A01289888E20E942A0185
:1002900028988CE00E942A01289886E00E942A0172
:1002A000289881E00E942A018FED9EE20197F1F7E4
:1002B00000C000000895289881E00E942A018FED77
:1002C0009EE20197F1F700C000000895CF93DF93FD
:1002D000EC018881882339F02196289A0E942A010E
:1002E00089918111FACFDF91CF9108950F931F93D8
:1002F000CF93DF93CDB7DEB728970FB6F894DEBF64
:100300000FBECDBF4AE0BE016F5F7F4F0E94F70A6C
:100310008981882359F08E010E5F1F4F289A0E9411
:100320002A01F80181918F018111F8CF28960FB62B
:10033000F894DEBF0FBECDBFDF91CF911F910F911B
:100340000895CF93DF93EC01289A8881882379F070
:1003500021960E942A012FEF89E698E121508040E2
:100360009040E1F700C0000089918111F2CFDF9148
:10037000CF910895CF92DF92EF92FF920F931F9348
:10038000CF93DF936B017C018FE090E00E94D60950
:10039000EC018C0125E041E0C701B6010E94B609DD
:1003A0008881882321F1FE01319660E070E001C070
:1003B000B9019B012F5F3F4F81918111F9CF81E0FE
:1003C00090E008C04E3271F0CB01029601962817DA
:1003D00039076CF0F901E81BF90BEC0FFD1F4081A8
:1003E000403381F710820196281739079CF7289827
:1003F00080EC0E942A01289A8DE30E942A018881BC
:10040000882339F02196289A0E942A018991811126
:10041000FACFDF91CF911F910F91FF90EF90DF9076
:10042000CF900895289A811101C008950C942A0153
:10043000509A519A529A539A549855985698579858
:100440005C9A5D9A5E9A5F9A589A599A5A9A5B9A00
:100450003898409A08958F929F92AF92BF92CF9210
:10046000DF92EF92FF920F931F93CF93DF9320E0E1
:1004700030E0589A599A5A9A5B9A2230310509F419
:1004800083C02330310509F483C02130310509F4DC
:100490007DC05898D9B0C9B0B9B099B0A6B059B11B
:1004A00049B189B089B196B154FB662760F970E013
:1004B00045FBEE27E0F9F0E0AB014E235F2386FA1F
:1004C000AA27A0F9B0E04A235B23881F8827881F4A
:1004D000892390E084239523892B99F02F5F3F4F48
:1004E0002430310531F680E0DF91CF911F910F91DB
:1004F000FF90EF90DF90CF90BF90AF909F908F9044
:10050000089569B159B189B149B196B162956170E7
:10051000C62F60E0D62F55FB002700F910E0BE0182
:100520006023712386FBEE24E0F8F12C6E217F21FD
:10053000441F4427441F492350E0CB0184239523C3
:10054000892BF9F2992D90788A2D8170892B9B2D1A
:100550009074892B9C2D9072892B9D2D9071892BE5
:100560002230310511F123303105A1F02130310560
:1005700029F1813D09F452C0E8F5813709F44CC0F6
:10058000813BE1F489E3B0CF5A9884CF599882CF68
:100590005B9880CF813D09F445C0F8F4813781F143
:1005A000813B09F0A0CF8DE39FCF813DE9F178F445
:1005B000813741F1813B71F783E396CF813DB1F102
:1005C00098F4813729F1813B81F786E38DCF813E15
:1005D000E9F0803FF9F684E587CF813EA9F0803FBE
:1005E00009F081CF83E680CF813EA1F0803FE9F61C
:1005F00083E47ACF803FA1F0813F01F787E374CF96
:100600008BE272CF8DE270CF8EE26ECF81E36CCF42
:100610008AE26ACF84E368CF8FE266CF88E364CF53
:1006200083E562CF80E360CF82E35ECF85E35CCF7A
:100630001F93CF93DF93182F84E090E00E94D60998
:10064000EC011A831B82812F90E0880F991F880F7D
:10065000991F0E94D60999838883CE01DF91CF919B
:100660001F9108951F93CF93DF93182F84E090E09C
:100670000E94D609EC011A831B82812F90E00E9410
:10068000D60999838883CE01DF91CF911F91089578
:10069000DC01ED91FC91119713968C91139791E0E9
:1006A000980F13969C9394E0899FE00DF11D1124FF
:1006B00040835183628373830895DC01ED91FC9143
:1006C000119713968C91139791E0980F13969C9322
:1006D000E80FF11D60830895DC01ED91FC91119705
:1006E00013969C911397915013969C9384E0989F36
:1006F000E00DF11D11246081718182819381089543
:10070000DC01ED91FC91119713969C9113979150F8
:1007100013969C93E90FF11D80810895DC011396D7
:100720009C9113978FEF890FED91FC911197925047
:1007300013969C9394E0899FE00DF11D1124608134
:100740007181828193810895DC0113969C911397A6
:10075000ED91FC9111978EEF890F13968C93915028
:10076000E90FF11D808108957F928F929F92AF9241
:10077000BF92CF92DF92EF92FF920F931F93CF938E
:10078000DF935C01FC0191908F01C0E0D0E0C12CAF
:10079000D12C7601992009F462C0FEE29F1609F17E
:1007A00020E030E040E251E4C701B6010E94C407F6
:1007B0006B017C012196692D70E060537109072E51
:1007C000000C880B990B0E943807A70196010E9424
:1007D00058066B017C01F80191908F01FEE29F1297
:1007E000D9CFF501EC0FFD1F71807720C1F1229662
:1007F000CA0DDB1D812C912C80E2A82E81E4B82E3D
:1008000001E010E011C0B801012E000C880B990B1B
:100810000E9438079B01AC0160E070E080E291E447
:100820000E9431084B015C010F5F1F4F672D70E084
:1008300060537109072E000C880B990B0E94380732
:10084000A50194010E94C4069B01AC01C701B60139
:100850000E9458066B017C0179907110D4CFC701BA
:10086000B601DF91CF911F910F91FF90EF90DF9034
:10087000CF90BF90AF909F908F907F9008950F93EF
:100880000B32C1F060F00D3231F00F3271F40E9482
:10089000C4060F9108950E9457060F9108950A32D9
:1008A00021F40E94C4070F91089560E070E0CB012D
:1008B0000F9108950E9458060F9108956F927F92AC
:1008C0008F929F92AF92BF92CF92DF92EF92FF9260
:1008D0000F931F93CF93DF93CDB7DEB7EC970FB68F
:1008E000F894DEBF0FBECDBF4E0123E3820E911CF4
:1008F0008AE0D4011D928A95E9F782E30E941803E9
:100900007C0182E30E9432036C01FE0131963F01BB
:1009100082E3DF011D928A95E9F782E08BA788AB1D
:1009200081E08CA78EA7D601ED91FC9111971396CB
:100930008C91139791E0980F13969C93E80FF11DFB
:100940001082A12CB12C0E942B02182F8336D9F3D0
:100950008D3309F4AEC0289A8823A9F30E942A0196
:10096000812F8D7F8D3261F086ED810F823040F0D6
:10097000F401EA0DFB1D1083F50131965F01E3CF11
:10098000F401EA0DFB1D1082C4010E94B403D701DB
:10099000ED91FC91119713962C91139731E0320F42
:1009A00013963C93B4E02B9FE00DF11D112460835E
:1009B000718382839383F301E10FF11D2081D601BE
:1009C000ED91FC91119713969C9113978FEF890FDE
:1009D00013968C93E80FF11D8081D301A80FB11DF0
:1009E0008C91281708F0C8C0F70183819FEF980FFA
:1009F000608171812EEF280F2383FB0124E0929FF9
:100A0000E00DF11D112420813181428153819DEF40
:100A1000980F8450D70113968C93FB01B4E09B9FF1
:100A2000E00DF11D11246081718182819381F601B5
:100A300003810190F081E02DAEEFBA2EB00ED60109
:100A40001396BC92AFEFA00FEA0FF11DE081EB32DD
:100A500009F4D9C008F4A6C0ED3209F4D7C0EF32CA
:100A600009F0CDC00E94C406D701ED91FC91119709
:100A700013962C91139731E0320F13963C93B4E008
:100A80002B9FE00DF11D112460837183828393837A
:100A9000D601ED91FC91119713968C91139791E0EB
:100AA000980F13969C93E80FF11D1083A12CB12C85
:100AB0004ACFF401EA0DFB1D1082C4010E94B40369
:100AC000D701ED91FC91119713962C91139731E07A
:100AD000320F13963C93B4E02B9FE00DF11D1124CF
:100AE0006083718382839383D601ED91FC9111978A
:100AF00013968C911397815013968C93E80FF11DE8
:100B00008081882309F453C0F70183812FEF280FD8
:100B1000608171819EEF980F9383FB0134E0239FE6
:100B2000E00DF11D112420813181428153818350D8
:100B3000D70113968C93FB01B4E09B9FE00DF11D50
:100B400011246081718182819381F601138101906A
:100B5000F081E02D0FEF010FD60113960C93E10FFA
:100B6000F11DE081EB32B9F070F0ED3289F0EF3237
:100B7000A9F40E94C406A4CFD60113969C931083B7
:100B8000A12CB12CE0CEEA3249F40E94C40798CFE0
:100B90000E94570695CF0E94580692CF60E070E001
:100BA000CB018ECFEA3259F50E94C4075DCFD70141
:100BB000ED91FC91119713968C9113978150139698
:100BC0008C93B4E08B9FE00DF11D11246081718145
:100BD00082819381EC960FB6F894DEBF0FBECDBF35
:100BE000DF91CF911F910F91FF90EF90DF90CF9009
:100BF000BF90AF909F908F907F906F90089560E02E
:100C000070E0CB0131CF0E9458062ECF0E945706CC
:100C10002BCFCF93DF938FEF84B90E943C012898AC
:100C200081E00E942A018FED9EE20197F1F700C05A
:100C300000000E941802C7E0D1E080E5289A0E94D7
:100C40002A0189918111FACF289880EC0E942A010B
:100C5000CBE1D1E083E4289A0E942A018991811195
:100C6000FACF83E191E00E94A101289881E00E94DF
:100C70002A018FED9EE20197F1F700C00000DF919D
:100C8000CF9108950E9409060E942B028336E1F756
:100C9000289881E00E942A018FED9EE20197F1F7EA
:100CA00000C000000E945E040E94BA01EDCF5058BF
:100CB000BB27AA270E946F060C948A070E947C0714
:100CC00038F00E94830720F039F49F3F19F426F48E
:100CD0000C9479070EF4E095E7FB0C947307E92F69
:100CE0000E949B0758F3BA1762077307840795079A
:100CF00020F079F4A6F50C94BD070EF4E0950B2EC8
:100D0000BA2FA02D0B01B90190010C01CA01A0015D
:100D10001124FF27591B99F0593F50F4503E68F1B8
:100D20001A16F040A22F232F342F4427585FF3CFF9
:100D3000469537952795A795F0405395C9F77EF4CA
:100D40001F16BA0B620B730B840BBAF09150A1F013
:100D5000FF0FBB1F661F771F881FC2F70EC0BA0F99
:100D6000621F731F841F48F4879577956795B79521
:100D7000F7959E3F08F0B0CF9395880F08F099271C
:100D8000EE0F9795879508950E94D8060C948A07D0
:100D90000E94830758F00E947C0740F029F45F3FCF
:100DA00029F00C94730751110C94BE070C94790729
:100DB0000E949B0768F39923B1F3552391F3951B88
:100DC000550BBB27AA2762177307840738F09F5F6C
:100DD0005F4F220F331F441FAA1FA9F335D00E2ED9
:100DE0003AF0E0E832D091505040E695001CCAF746
:100DF0002BD0FE2F29D0660F771F881FBB1F261709
:100E000037074807AB07B0E809F0BB0B802DBF01DF
:100E1000FF2793585F4F3AF09E3F510578F00C94AE
:100E200073070C94BE075F3FE4F3983ED4F38695B6
:100E300077956795B795F7959F5FC9F7880F911DCF
:100E40009695879597F90895E1E0660F771F881FBB
:100E5000BB1F621773078407BA0720F0621B730B6E
:100E6000840BBA0BEE1F88F7E0950895E89409C04B
:100E700097FB3EF490958095709561957F4F8F4FCD
:100E80009F4F9923A9F0F92F96E9BB279395F695E3
:100E9000879577956795B795F111F8CFFAF4BB0F61
:100EA00011F460FF1BC06F5F7F4F8F4F9F4F16C0C5
:100EB000882311F096E911C0772321F09EE8872F4F
:100EC000762F05C0662371F096E8862F70E060E00B
:100ED0002AF09A95660F771F881FDAF7880F969584
:100EE000879597F9089597F99F6780E870E060E02B
:100EF00008959FEF80EC089500240A9416161706B3
:100F000018060906089500240A94121613061406FA
:100F100005060895092E0394000C11F4882352F05D
:100F2000BB0F40F4BF2B11F460FF04C06F5F7F4F15
:100F30008F4F9F4F089557FD9058440F551F59F0FC
:100F40005F3F71F04795880F97FB991F61F09F3FB6
:100F500079F087950895121613061406551FF2CFDF
:100F60004695F1DF08C0161617061806991FF1CF2F
:100F700086957105610508940895E894BB27662756
:100F80007727CB0197F908950E94D7070C948A0719
:100F90000E947C0738F00E94830720F0952311F00F
:100FA0000C9473070C94790711240C94BE070E94CB
:100FB0009B0770F3959FC1F3950F50E0551F629FFB
:100FC000F001729FBB27F00DB11D639FAA27F00DA2
:100FD000B11DAA1F649F6627B00DA11D661F829FC9
:100FE0002227B00DA11D621F739FB00DA11D621FAE
:100FF000839FA00D611D221F749F3327A00D611DCB
:10100000231F849F600D211D822F762F6A2F1124AC
:101010009F5750409AF0F1F088234AF0EE0FFF1FDF
:10102000BB1F661F771F881F91505040A9F79E3F36
:10103000510580F00C9473070C94BE075F3FE4F3F6
:10104000983ED4F3869577956795B795F795E7958C
:101050009F5FC1F7FE2B880F911D9695879597F995
:101060000895FA01EE0FFF1F309621053105A1F119
:101070006115710561F48038BFE39B0749F16894FD
:101080009038810561F08038BFEF9B0741F09923CC
:101090004AF5FF3FE1053105210519F1E89408946F
:1010A000E795D901AA2329F4AB2FBE2FF85FD0F31F
:1010B00010C0FF5F70F4A695E0F7F73950F019F013
:1010C000FF3A38F49F779F930DD00F9007FC90580C
:1010D000089546F00C94790760E070E080E89FE3A3
:1010E00008954FE79F775F934F933F932F930E940D
:1010F0002C092F913F914F915F910E94C4070C944E
:10110000890829F416F00C9473070C94BD070C940D
:1011100079070E94A307A8F39638A0F707F80F9263
:10112000E8942BE33AEA48EB5FE70E94DA070F9274
:101130000F920F924DB75EB70F920E947409E8E6C6
:10114000F0E00E94BB084F915F91EF91FF91E59510
:10115000EE1FFF1F49F0FE57E0684427EE0F441FC3
:10116000FA95E1F74195550B0E94EE080F9007FEA6
:101170000C94E2080895DF93CF931F930F93FF928F
:10118000EF92DF927B018C01689406C0DA2EEF01AA
:101190000E94D707FE01E894A591259135914591CC
:1011A0005591A6F3EF010E946F06FE019701A80179
:1011B000DA9469F7DF90EF90FF900F911F91CF9134
:1011C000DF9108959B01AC0160E070E080E89FE34F
:1011D0000C94C4060C9473070C94A8090E94A307EE
:1011E000D8F39923C9F3940F511DA3F391505040A4
:1011F00094F059F0882332F0660F771F881F9150C2
:101200005040C1F79E3F51052CF7880F911D9695D0
:10121000879597F908955F3FACF0983E9CF0BB2707
:10122000869577956795B79508F4B1609395C1F762
:10123000BB0F58F711F460FFE8CF6F5F7F4F8F4F00
:101240009F4FE3CF0C94BE0716F00C94A8090C94A2
:10125000790768940C9473070E94A307A8F3992355
:10126000C1F3AEF3DF93CF931F930F93FF92C92F78
:10127000DD2788232AF02197660F771F881FDAF76A
:1012800020E030E040E85FEB9FE3883920F0803ECB
:1012900038F021968F770E945806E0E9F0E004C00C
:1012A0000E945806EDEBF0E00E94BB088B01BE01E6
:1012B000EC01FB2E6F5771097595771F880B990B01
:1012C0000E94380728E132E741E35FE30E94D70735
:1012D000AF2D9801AE01FF900F911F91CF91DF913B
:1012E0000E946F060C948A07FA01DC01AA0FBB1F4B
:1012F0009B01AC01BF5728F422273327442750789D
:1013000020C0B75190F4AB2F002446953795279510
:10131000011CA395D2F3002071F0220F331F441F4C
:10132000B395DAF30ED00C94570661307105A0E83E
:101330008A07B94630F49B01AC01662777278827D6
:101340009078309621F0208331834283538308952F
:101350009F3F31F0915020F4879577956795B79529
:10136000880F911D9695879597F90895EF920F93A1
:101370001F93CF93DF93E80147FD02C034E001C023
:1013800034E1042E000C550B57FF03C051954195D5
:101390005109E32E022F242FAE010E941C0BCE0117
:1013A000DF91CF911F910F91EF9008950F931F93AD
:1013B000CF93DF938230910510F482E090E0E091CA
:1013C0002601F091270120E030E0A0E0B0E0309766
:1013D00019F1408151810281138148175907C8F0E2
:1013E0008417950769F4109731F012960C931297B1
:1013F00013961C9327C0009326011093270122C047
:101400002115310519F04217530718F49A01BD014F
:10141000EF01DF01F801DBCF21153105F9F0281BC1
:10142000390B2430310580F48A819B816115710567
:1014300021F0FB019383828304C090932701809362
:101440002601FE01329644C0FE01E20FF31F819394
:10145000919322503109398328833AC02091240185
:1014600030912501232B41F4209102013091030199
:101470003093250120932401209100013091010136
:101480002115310541F42DB73EB74091040150912B
:101490000501241B350BE0912401F0912501E21791
:1014A000F307A0F42E1B3F0B2817390778F0AC0187
:1014B0004E5F5F4F2417350748F04E0F5F1F509364
:1014C0002501409324018193919302C0E0E0F0E074
:1014D000CF01DF91CF911F910F910895CF93DF93AB
:1014E000009709F481C0FC01329713821282A09107
:1014F0002601B0912701109781F420813181820F5C
:10150000931F20912401309125012817390751F5A7
:10151000F0932501E093240167C0ED0120E030E065
:10152000CE17DF0740F44A815B819E0141155105CA
:10153000F1F0EA01F5CFD383C28340815181840F5A
:10154000951FC817D90759F488819981840F951F71
:101550000296918380838A819B8193838283211564
:10156000310529F4F0932701E09326013DC0E901FC
:10157000FB83EA8349915991C40FD51FEC17FD07EE
:1015800061F480819181840F951F0296E90199830E
:101590008883828193819B838A83E0E0F0E01296C6
:1015A0008D919C911397009719F0FD01DC01F7CF05
:1015B0008D919C9111979D012E5F3F4F820F931F3C
:1015C00020912401309125012817390769F43097BB
:1015D00029F4109227011092260102C01382128270
:1015E000B0932501A0932401DF91CF910895BB27EB
:1015F0004A3031F4992322F4BDE2909581959F4FB2
:101600000C94030BBB27FB015527AA27880F991FB2
:10161000AA1FA41710F0A41B83955051B9F7A05D21
:10162000AA3308F0A95DA193009779F7B111B1939E
:101630001192CB010C944E0DA9E0B0E0E2E2FBE088
:101640000C94640D6A01122FB02E2BE3201720F0AA
:10165000FF24F394F00E02C02CE3F22E0F2D27E0AE
:10166000AE014F5F5F4F0E94760CBC014981842F11
:101670008970813031F0E1FC06C0E0FE06C090E2E6
:1016800005C09DE203C09BE201C090E05E2D507159
:1016900043FF3CC0911102C083E001C084E0811788
:1016A00018F4212F281B01C020E051110BC0F601B6
:1016B000822F30E2882319F031938150FBCFC20E84
:1016C000D11C20E0992329F0D6019C93F601319694
:1016D0006F01C6010396E2FE0AC03EE4D6013C93C8
:1016E00041E411964C93119712963C9306C03EE646
:1016F000F601308341E641833283FC01322F40E220
:10170000332309F442C041933150FACF42FF44C021
:10171000911102C083E001C084E0811718F4212FE9
:10172000281B01C020E051110BC0F601822F30E2CE
:10173000882319F031938150FBCFC20ED11C20E0D9
:10174000992329F0D6019C93F60131966F01C601C9
:101750000396E2FE0BC039E4D6013C933EE41196B9
:101760003C93119736E412963C9307C039E6F60194
:1017700030833EE6318336E63283FC01322F40E28D
:10178000332319F041933150FBCFFC01E20FF11DDF
:1017900010828EEF9FEFA6C021E030E0911102C0D1
:1017A00020E030E0161617061CF4FB01319602C04B
:1017B000E1E0F0E02E0F3F1FBB2021F0EB2DF0E029
:1017C000319602C0E0E0F0E02E0F3F1FE12FF0E085
:1017D0002E173F071CF4121B212F01C020E08E2D75
:1017E000887159F4F601822F30E2882319F0319381
:1017F0008150FBCFC20ED11C20E0992329F0D601E5
:101800009C93F60131966F0151110BC0F601822FA6
:1018100090E3882319F091938150FBCFC20ED11C25
:1018200020E00F2D060F9A81342F307144FF03C042
:10183000913309F40150101624F4093018F008E02F
:1018400001C001E0AB0177FF02C040E050E0FB01C6
:10185000E41BF50BA1E0B0E0AC0FBD1FEA0FFB1FCE
:101860008EE2A82E4B01801A91080B2D10E01195E5
:10187000019511094F3FBFEF5B0721F4D601AC92F0
:1018800011966D01641775072CF08416950614F4F3
:10189000818101C080E3415051093196D6011196F2
:1018A0007D014017510724F0D6018C936701E2CFE8
:1018B0006417750739F4963320F4953319F4311110
:1018C00001C081E3F6018083F701822F90E2882333
:1018D00019F091938150FBCFF701E20FF11D1082B7
:1018E00080E090E02996ECE00C94800D283008F020
:1018F00027E03327DA01990F311D87FD91600096AB
:101900006105710539F432602E5F3D9330E32A950D
:10191000E1F708959F3F30F080387105610509F0C7
:101920003C5F3C5F3D93913008F08068911DDF93F0
:10193000CF931F930F93FF92EF92192F987F969555
:10194000E92F96959695E90FFF27EC5BFE4F9927B7
:101950003327EE24FF24A701E7010590089407949C
:1019600028F4360FE71EF81E491F511D660F771F1A
:10197000881F991F0694A1F70590079428F4E70E95
:10198000F81E491F561FC11D770F881F991F661F1C
:101990000694A1F70590079428F4F80E491F561FE6
:1019A000C71FD11D880F991F661F771F0694A1F7C7
:1019B0000590079420F4490F561FC71FD81F990F91
:1019C000661F771F881F0694A9F7849110951770DA
:1019D00041F0D695C79557954795F794E7941A9592
:1019E000C1F7EAEEF0E06894159015913591659194
:1019F000959105907FE27395E118F10A430B560B20
:101A0000C90BD009C0F7E10CF11E431F561FC91FB7
:101A1000D01D7EF4703311F48A95E6CFE89401501E
:101A200030F0080F0AF40027021708F4202F23953E
:101A3000022F7A3328F079E37D932A95E9F710C0D5
:101A40007D932A9589F6069497956795379517950E
:101A50001794E118F10A430B560BC90BD00998F003
:101A600023957E9173957A3308F070E37C9320136D
:101A7000B8F77E9170617D9330F0839571E37D932B
:101A800070E32A95E1F71124EF90FF900F911F91D9
:101A9000CF91DF91992787FD90950895DC01FC0196
:101AA000672F71917723E1F7329704C07C916D9392
:101AB00070836291AE17BF07C8F308952F923F92CB
:101AC0004F925F926F927F928F929F92AF92BF924E
:101AD000CF92DF92EF92FF920F931F93CF93DF93FA
:101AE000CDB7DEB7CA1BDB0B0FB6F894DEBF0FBE57
:101AF000CDBF09942A88398848885F846E847D84A4
:101B00008C849B84AA84B984C884DF80EE80FD80A5
:101B10000C811B81AA81B981CE0FD11D0FB6F8941B
:0E1B2000DEBF0FBECDBFED010895F894FFCFDC
:101B2E00000028012000502E53726976617264689D
:101B3E00616E002045453131200043616C636920A0
:041B4E0076310000EC
:00000001FF
