:100000000C94B1000C94CE000C94CE000C94CE0055
:100010000C94CE000C94CE000C94CE000C94CE0028
:100020000C94CE000C94CE000C94CE000C94CE0018
:100030000C94CE000C94CE000C94CE000C94CE0008
:100040000C94CE000C94CE000C94CE000C94CE00F8
:100050000C94CE000C94CE000C94CE000C94CE00E8
:100060000C94CE000C94CE0000407A10F35A00A0FD
:10007000724E18090010A5D4E80000E87648170071
:1000800000E40B54020000CA9A3B000000E1F505B1
:10009000000080969800000040420F000000A086FB
:1000A00001000000102700000000E803000000002D
:1000B0006400000000000A000000000001000000D1
:1000C00000002C76D888DC674F0823DFC1DFAE59EB
:1000D000E1B1B796E5E3E453C63AE651997696E87E
:1000E000E6C28426EB898C9B62ED407C6FFCEFBC02
:1000F0009C9F40F2BAA56FA5F490055A2AF75C932D
:100100006B6CF9676DC11BFCE0E40D47FEF520E662
:10011000B500D0ED902E0300943577050080841E45
:10012000080000204E0A000000C80C333333330FA0
:10013000986E12831141EF8D2114893BE65516CF3D
:10014000FEE6DB18D1844B381BF77C1D901DA4BB49
:10015000E424203284725E228100C9F124ECA1E5FE
:100160003D2711241FBECFEFD8E0DEBFCDBF11E089
:10017000A0E0B1E0EEE7F2E102C005900D92A031FF
:10018000B107D9F721E0A0E1B1E001C01D92A4318F
:10019000B207E1F70E94BC030C943D090C940000E7
:1001A000299A85ED8A95F1F700002998089595B16F
:1001B000937C95B984FD2D9A85FD2C9A86FD2B9A0A
:1001C00087FD2A9A299A85ED8A95F1F700002998EA
:1001D0000895CF93C82F0E94D7008C2F8295807FDF
:1001E0000E94D7002D98CF91089528980C94E9008B
:1001F000289A0C94E900289883E30E94E900289843
:1002000082E30E94E900289888E20E94E900289889
:100210008CE00E94E900289886E00E94E900289876
:1002200081E00E94E9008FED9EE20197F1F700C0A6
:1002300000000895289881E00E94E9008FED9EE279
:100240000197F1F700C000000895CF93DF93EC0110
:100250008881882339F02196289A0E94E9008991A3
:100260008111FACFDF91CF9108950F931F93CF9310
:10027000DF93CDB7DEB728970FB6F894DEBF0FBE79
:10028000CDBF4AE0BE016F5F7F4F0E949F0689810C
:10029000882359F08E010E5F1F4F289A0E94E900B3
:1002A000F80181918F018111F8CF28960FB6F8944B
:1002B000DEBF0FBECDBFDF91CF911F910F9108958B
:1002C000CF93DF93EC01289A8881882379F02196D7
:1002D0000E94E9002FEF89E698E12150804090408C
:1002E000E1F700C0000089918111F2CFDF91CF9139
:1002F0000895EF92FF920F931F93CF93DF938C019A
:100300008FE090E00E947E05EC01F8016081718130
:10031000828193818E0126E041E00E945E05888102
:10032000882309F440C0FE013196E12CF12C01C074
:10033000780187010F5F1F4F81918111F9CFC801AB
:100340000E94350181E090E008C02E3271F0C701B3
:1003500002960196081719076CF0F801E81BF90BD3
:10036000EC0FFD1F2081203381F7108201960817C2
:1003700019079CF7289880EC0E94E900289A8DE3E1
:100380000E94E9008881882339F02196289A0E94EA
:10039000E90089918111FACFDF91CF911F910F91DF
:1003A000FF90EF90089580E090E00E94350128983A
:1003B00080EC0E94E900E2CF0F931F93CF93DF936D
:1003C0008C018FE090E00E947E05EC01F8016081D5
:1003D0007181828193818E0125E041E00E945E055A
:1003E0008881882379F1DE011196FD0160E070E0DB
:1003F00001C0B9019B012F5F3F4F81918111F9CF5E
:1004000081E090E008C04E3271F0CB010296019677
:10041000281739076CF0F901E81BF90BEC0FFD1FE9
:100420004081403381F710820196281739079CF7E5
:100430008881882339F0ED01289A0E94E90089918A
:100440008111FACFDF91CF911F910F910895CF9332
:10045000DF93EC01FB01208131814281538168816E
:1004600079818A819B810E94C203688379838A8310
:100470009B83DF91CF910895CF93DF93EC01FB0134
:100480002081318142815381688179818A819B8178
:100490000E94C103688379838A839B83DF91CF9114
:1004A0000895CF93DF93EC01FB01208131814281DC
:1004B0005381688179818A819B810E94F1046883DC
:1004C00079838A839B83DF91CF910895CF93DF93C4
:1004D000EC01FB0120813181428153816881798166
:1004E0008A819B810E942E04688379838A839B83FF
:1004F000DF91CF910895FC01108211821282138244
:1005000008950F931F93CF93DF938A0142305105D3
:1005100054F0C1E0D0E09B01AC010E94F1042196AF
:100520000C171D07C1F7DF91CF911F910F9108950F
:10053000509A519A529A539A549855985698579857
:100540005C9A5D9A5E9A5F9A589A599A5A9A5B9AFF
:1005500008959F92AF92BF92CF92DF92EF92FF9257
:100560000F931F93CF93DF9320E030E0589A599A6E
:100570005A9A5B9A2230310509F47CC02330310548
:1005800009F47CC02130310509F476C05898F9B0DF
:10059000E9B0A9B0B9B0D9B099B199B089B1D4FADC
:1005A000442740F950E095FB662760F970E06A0146
:1005B000C622D722881F8827881F90E08C219D2182
:1005C00096FAEE27E0F9F0E08E239F23019791F44D
:1005D0002F5F3F4F2430310549F680E0DF91CF9106
:1005E0001F910F91FF90EF90DF90CF90BF90AF9051
:1005F0009F90089549B189B169B199B144FBAA2787
:10060000A0F9B0E085FB882780F9C82F80E0D82FBB
:10061000AD014C235D23991F9927991F892F90E0E5
:100620008423952366FB002700F910E080239123A3
:10063000019701F79A2D90748B2D8078892B9E2D30
:100640009072892B9F2D9071892B2230310509F1F1
:100650002330310529F12130310591F0803B09F437
:1006600047C008F447C0803D09F440C0803F41F4D2
:1006700087E3B4CF5A988BCF599889CF5B9887CFAF
:10068000803B09F441C040F1803D09F43FC0803E09
:1006900059F1803BB9F1E0F0803D91F1803E11F1DC
:1006A000803BF1F080F0803D49F1803E09F095CF2C
:1006B000289881E00E94E9008FED9EE20197F1F712
:1006C00000C000008ACF803709F087CF8BE286CF49
:1006D000803731F78DE282CF8037D9F68AE27ECF3C
:1006E0008DE37CCF81E37ACF84E378CF88E376CF44
:1006F00089E374CF803721F68FE270CF80E36ECF2D
:1007000082E36CCF83E36ACF86E368CF85E366CF6D
:100710000E94A902289A811101C008950C94E90051
:10072000CF93DF938FEF84B90E94FB00289881E07C
:100730000E94E9008FED9EE20197F1F700C00000F2
:100740000E949802C7E0D1E083E4289A0E94E90061
:1007500089918111FACF8CE091E00E946001289884
:1007600081E00E94E9008FED9EE20197F1F700C061
:100770000000DF91CF9108950E9490030E948803AA
:10078000FDCF5058BB27AA270E94D9030C94B70469
:100790000E94A90438F00E94B00420F039F49F3F71
:1007A00019F426F40C94A6040EF4E095E7FB0C94DF
:1007B000A004E92F0E94C80458F3BA176207730710
:1007C0008407950720F079F4A6F50C94EA040EF45A
:1007D000E0950B2EBA2FA02D0B01B90190010C0151
:1007E000CA01A0011124FF27591B99F0593F50F469
:1007F000503E68F11A16F040A22F232F342F4427C1
:10080000585FF3CF469537952795A795F0405395B8
:10081000C9F77EF41F16BA0B620B730B840BBAF088
:100820009150A1F0FF0FBB1F661F771F881FC2F7F3
:100830000EC0BA0F621F731F841F48F48795779507
:100840006795B795F7959E3F08F0B0CF9395880FC1
:1008500008F09927EE0F9795879508950E94420416
:100860000C94B7040E94B00458F00E94A90440F010
:1008700029F45F3F29F00C94A00451110C94EB046F
:100880000C94A6040E94C80468F39923B1F355237D
:1008900091F3951B550BBB27AA2762177307840793
:1008A00038F09F5F5F4F220F331F441FAA1FA9F329
:1008B00035D00E2E3AF0E0E832D091505040E69517
:1008C000001CCAF72BD0FE2F29D0660F771F881F78
:1008D000BB1F261737074807AB07B0E809F0BB0B6B
:1008E000802DBF01FF2793585F4F3AF09E3F51057F
:1008F00078F00C94A0040C94EB045F3FE4F3983E72
:10090000D4F3869577956795B795F7959F5FC9F767
:10091000880F911D9695879597F90895E1E0660FE8
:10092000771F881FBB1F621773078407BA0720F061
:10093000621B730B840BBA0BEE1F88F7E0950895CA
:1009400097F99F6780E870E060E008959FEF80EC82
:10095000089500240A941616170618060906089525
:1009600000240A9412161306140605060895092E8B
:100970000394000C11F4882352F0BB0F40F4BF2BFA
:1009800011F460FF04C06F5F7F4F8F4F9F4F08953A
:1009900057FD9058440F551F59F05F3F71F0479530
:1009A000880F97FB991F61F09F3F79F08795089515
:1009B000121613061406551FF2CF4695F1DF08C034
:1009C000161617061806991FF1CF86957105610551
:1009D00008940895E894BB2766277727CB0197F9F9
:1009E00008950E9404050C94B7040E94A90438F0ED
:1009F0000E94B00420F0952311F00C94A0040C94F4
:100A0000A60411240C94EB040E94C80470F3959F73
:100A1000C1F3950F50E0551F629FF001729FBB27F5
:100A2000F00DB11D639FAA27F00DB11DAA1F649F91
:100A30006627B00DA11D661F829F2227B00DA11D44
:100A4000621F739FB00DA11D621F839FA00D611DCA
:100A5000221F749F3327A00D611D231F849F600DEB
:100A6000211D822F762F6A2F11249F5750409AF014
:100A7000F1F088234AF0EE0FFF1FBB1F661F771FA0
:100A8000881F91505040A9F79E3F510580F00C946B
:100A9000A0040C94EB045F3FE4F3983ED4F38695F6
:100AA00077956795B795F795E7959F5FC1F7FE2B0B
:100AB000880F911D9695879597F90895EF920F935A
:100AC0001F93CF93DF93E80147FD02C034E001C0DC
:100AD00034E1042E000C550B57FF03C0519541958E
:100AE0005109E32E022F242FAE010E94C406CE012D
:100AF000DF91CF911F910F91EF9008950F931F9366
:100B0000CF93DF938230910510F482E090E0E09182
:100B10001201F091130120E030E0A0E0B0E0309746
:100B200019F1408151810281138148175907C8F09A
:100B30008417950769F4109731F012960C93129769
:100B400013961C9327C0009312011093130122C027
:100B50002115310519F04217530718F49A01BD0108
:100B6000EF01DF01F801DBCF21153105F9F0281B7A
:100B7000390B2430310580F48A819B816115710520
:100B800021F0FB019383828304C09093130180932F
:100B90001201FE01329644C0FE01E20FF31F819361
:100BA000919322503109398328833AC02091100152
:100BB00030911101232B41F4209102013091030166
:100BC0003093110120931001209100013091010117
:100BD0002115310541F42DB73EB7409104015091E4
:100BE0000501241B350BE0911001F0911101E21772
:100BF000F307A0F42E1B3F0B2817390778F0AC0140
:100C00004E5F5F4F2417350748F04E0F5F1F50931C
:100C10001101409310018193919302C0E0E0F0E054
:100C2000CF01DF91CF911F910F910895CF93DF9363
:100C3000009709F481C0FC01329713821282A091BF
:100C40001201B0911301109781F420813181820F3C
:100C5000931F20911001309111012817390751F588
:100C6000F0931101E093100167C0ED0120E030E046
:100C7000CE17DF0740F44A815B819E014115510583
:100C8000F1F0EA01F5CFD383C28340815181840F13
:100C9000951FC817D90759F488819981840F951F2A
:100CA0000296918380838A819B819383828321151D
:100CB000310529F4F0931301E09312013DC0E901DD
:100CC000FB83EA8349915991C40FD51FEC17FD07A7
:100CD00061F480819181840F951F0296E9019983C7
:100CE0008883828193819B838A83E0E0F0E012967F
:100CF0008D919C911397009719F0FD01DC01F7CFBE
:100D00008D919C9111979D012E5F3F4F820F931FF4
:100D100020911001309111012817390769F430979B
:100D200029F4109213011092120102C01382128250
:100D3000B0931101A0931001DF91CF910895BB27CB
:100D40004A3031F4992322F4BDE2909581959F4F6A
:100D50000C94AB06BB27FB015527AA27880F991FC8
:100D6000AA1FA41710F0A41B83955051B9F7A05DDA
:100D7000AA3308F0A95DA193009779F7B111B19357
:100D80001192CB010C94F608A9E0B0E0EAECF6E091
:100D90000C940C096A01122FB02E2BE3201720F0BF
:100DA000FF24F394F00E02C02CE3F22E0F2D27E067
:100DB000AE014F5F5F4F0E941E08BC014981842F26
:100DC0008970813031F0E1FC06C0E0FE06C090E29F
:100DD00005C09DE203C09BE201C090E05E2D507112
:100DE00043FF3CC0911102C083E001C084E0811741
:100DF00018F4212F281B01C020E051110BC0F6016F
:100E0000822F30E2882319F031938150FBCFC20E3C
:100E1000D11C20E0992329F0D6019C93F60131964C
:100E20006F01C6010396E2FE0AC03EE4D6013C9380
:100E300041E411964C93119712963C9306C03EE6FE
:100E4000F601308341E641833283FC01322F40E2D8
:100E5000332309F442C041933150FACF42FF44C0DA
:100E6000911102C083E001C084E0811718F4212FA2
:100E7000281B01C020E051110BC0F601822F30E287
:100E8000882319F031938150FBCFC20ED11C20E092
:100E9000992329F0D6019C93F60131966F01C60182
:100EA0000396E2FE0BC039E4D6013C933EE4119672
:100EB0003C93119736E412963C9307C039E6F6014D
:100EC00030833EE6318336E63283FC01322F40E246
:100ED000332319F041933150FBCFFC01E20FF11D98
:100EE00010828EEF9FEFA6C021E030E0911102C08A
:100EF00020E030E0161617061CF4FB01319602C004
:100F0000E1E0F0E02E0F3F1FBB2021F0EB2DF0E0E1
:100F1000319602C0E0E0F0E02E0F3F1FE12FF0E03D
:100F20002E173F071CF4121B212F01C020E08E2D2D
:100F3000887159F4F601822F30E2882319F0319339
:100F40008150FBCFC20ED11C20E0992329F0D6019D
:100F50009C93F60131966F0151110BC0F601822F5F
:100F600090E3882319F091938150FBCFC20ED11CDE
:100F700020E00F2D060F9A81342F307144FF03C0FB
:100F8000913309F40150101624F4093018F008E0E8
:100F900001C001E0AB0177FF02C040E050E0FB017F
:100FA000E41BF50BA1E0B0E0AC0FBD1FEA0FFB1F87
:100FB0008EE2A82E4B01801A91080B2D10E011959E
:100FC000019511094F3FBFEF5B0721F4D601AC92A9
:100FD00011966D01641775072CF08416950614F4AC
:100FE000818101C080E3415051093196D6011196AB
:100FF0007D014017510724F0D6018C936701E2CFA1
:101000006417750739F4963320F4953319F43111C8
:1010100001C081E3F6018083F701822F90E28823EB
:1010200019F091938150FBCFF701E20FF11D10826F
:1010300080E090E02996ECE00C942809283008F034
:1010400027E03327DA01990F311D87FD9160009663
:101050006105710539F432602E5F3D9330E32A95C6
:10106000E1F708959F3F30F080387105610509F080
:101070003C5F3C5F3D93913008F08068911DDF93A9
:10108000CF931F930F93FF92EF92192F987F96950E
:10109000E92F96959695E90FFF27EE53FF4F992775
:1010A0003327EE24FF24A701E70105900894079455
:1010B00028F4360FE71EF81E491F511D660F771FD3
:1010C000881F991F0694A1F70590079428F4E70E4E
:1010D000F81E491F561FC11D770F881F991F661FD5
:1010E0000694A1F70590079428F4F80E491F561F9F
:1010F000C71FD11D880F991F661F771F0694A1F780
:101100000590079420F4490F561FC71FD81F990F49
:10111000661F771F881F0694A9F784911095177092
:1011200041F0D695C79557954795F794E7941A954A
:10113000C1F7E8E6F0E06894159015913591659156
:10114000959105907FE27395E118F10A430B560BD8
:10115000C90BD009C0F7E10CF11E431F561FC91F70
:10116000D01D7EF4703311F48A95E6CFE8940150D7
:1011700030F0080F0AF40027021708F4202F2395F7
:10118000022F7A3328F079E37D932A95E9F710C08E
:101190007D932A9589F606949795679537951795C7
:1011A0001794E118F10A430B560BC90BD00998F0BC
:1011B00023957E9173957A3308F070E37C93201326
:1011C000B8F77E9170617D9330F0839571E37D93E4
:1011D00070E32A95E1F71124EF90FF900F911F9192
:1011E000CF91DF91992787FD90950895DC01FC014F
:1011F000672F71917723E1F7329704C07C916D934B
:1012000070836291AE17BF07C8F308952F923F9283
:101210004F925F926F927F928F929F92AF92BF9206
:10122000CF92DF92EF92FF920F931F93CF93DF93B2
:10123000CDB7DEB7CA1BDB0B0FB6F894DEBF0FBE0F
:10124000CDBF09942A88398848885F846E847D845C
:101250008C849B84AA84B984C884DF80EE80FD805E
:101260000C811B81AA81B981CE0FD11D0FB6F894D4
:0E127000DEBF0FBECDBFED010895F894FFCF95
:10127E0000001401200043616C6320005632000010
:00000001FF
