:100000000C94F2000C940F010C940F010C940F014E
:100010000C940F010C940F010C940F010C940F0120
:100020000C940F010C940F010C940F010C940F0110
:100030000C940F010C940F010C940F010C940F0100
:100040000C940F010C940F010C940F010C940F01F0
:100050000C940F010C940F010C940F010C940F01E0
:100060000C940F010C940F0107634236B79BD8A77D
:100070001A39685618AEBAAB558C1D3CB7CC5763CD
:10008000BD6DEDFD753EF6177231BF000000803F7B
:1000900008000000BE922449123EABAAAA2ABECD97
:1000A000CCCC4C3E00000080BEABAAAAAA3E000009
:1000B0000000BF000000803F000000000008417801
:1000C000D3BB4387D1133D190E3CC3BD4282AD2B38
:1000D0003E68EC8276BED98FE1A93E4C80EFFFBE30
:1000E00001C4FF7F3F000000000000407A10F35A77
:1000F00000A0724E18090010A5D4E80000E8764868
:10010000170000E40B54020000CA9A3B000000E113
:10011000F505000080969800000040420F000000A6
:10012000A08601000000102700000000E803000086
:1001300000006400000000000A0000000000010050
:10014000000000002C76D888DC674F0823DFC1DF71
:10015000AE59E1B1B796E5E3E453C63AE651997674
:1001600096E8E6C28426EB898C9B62ED407C6FFCAE
:10017000EFBC9C9F40F2BAA56FA5F490055A2AF7F0
:100180005C936B6CF9676DC11BFCE0E40D47FEF5F9
:1001900020E6B500D0ED902E030094357705008061
:1001A000841E080000204E0A000000C80C333333C0
:1001B000330F986E12831141EF8D2114893BE65560
:1001C00016CFFEE6DB18D1844B381BF77C1D901D43
:1001D000A4BBE424203284725E228100C9F124ECA5
:1001E000A1E53D2711241FBECFEFD8E0DEBFCDBF74
:1001F00011E0A0E0B1E0ECE9FEE102C005900D9253
:10020000A033B107D9F721E0A0E3B1E001C01D920E
:10021000A433B207E1F70E94AC070C944C0F0C9486
:100220000000299A85ED8A95F1F700002998089534
:1002300095B1937C95B984FD2D9A85FD2C9A86FD08
:100240002B9A87FD2A9A299A85ED8A95F1F7000065
:1002500029980895CF93C82F0E9418018C2F82955A
:10026000807F0E9418012D98CF91089528980C94B2
:100270002A01289A0C942A01289883E30E942A01D3
:10028000289882E30E942A01289888E20E942A0185
:1002900028988CE00E942A01289886E00E942A0172
:1002A000289881E00E942A018FED9EE20197F1F7E4
:1002B00000C000000895289881E00E942A018FED77
:1002C0009EE20197F1F700C000000895CF93DF93FD
:1002D000EC018881882339F02196289A0E942A010E
:1002E00089918111FACFDF91CF9108950F931F93D8
:1002F000CF93DF93CDB7DEB728970FB6F894DEBF64
:100300000FBECDBF4AE0BE016F5F7F4F0E94AE0CB3
:100310008981882359F08E010E5F1F4F289A0E9411
:100320002A01F80181918F018111F8CF28960FB62B
:10033000F894DEBF0FBECDBFDF91CF911F910F911B
:100340000895CF93DF93EC01289A8881882379F070
:1003500021960E942A012FEF89E698E121508040E2
:100360009040E1F700C0000089918111F2CFDF9148
:10037000CF910895CF92DF92EF92FF920F931F9348
:10038000CF93DF936B017C0184E190E00E948D0BA1
:10039000EC018C0127E041E0C701B6010E946D0B22
:1003A0008881882321F1FE01319660E070E001C070
:1003B000B9019B012F5F3F4F81918111F9CF81E0FE
:1003C00090E008C04E3271F1CB01029601962817D9
:1003D00039076CF0F901E81BF90BEC0FFD1F4081A8
:1003E000403381F710820196281739079CF7289827
:1003F00080EC0E942A01289A8DE30E942A018881BC
:10040000882339F02196289A0E942A018991811126
:10041000FACFDF91CF911F910F91FF90EF90DF9076
:10042000CF9008951082CB010296D0CF289A8111E7
:1004300001C008950C942A01509A519A529A539AE5
:1004400054985598569857985C9A5D9A5E9A5F9A18
:10045000589A599A5A9A5B9A3898409A08958F9266
:100460009F92AF92BF92CF92DF92EF92FF920F9343
:100470001F93CF93DF9320E030E0589A599A5A9A0D
:100480005B9A2230310509F483C02330310509F429
:1004900083C02130310509F47DC05898D9B0C9B066
:1004A000B9B099B0A6B059B149B189B089B196B186
:1004B00054FB662760F970E045FBEE27E0F9F0E0B9
:1004C000AB014E235F2386FAAA27A0F9B0E04A23A6
:1004D0005B23881F8827881F892390E08423952326
:1004E000892B99F02F5F3F4F2430310531F680E0A2
:1004F000DF91CF911F910F91FF90EF90DF90CF9000
:10050000BF90AF909F908F90089569B159B189B114
:1005100049B196B162956170C62F60E0D62F55FB48
:10052000002700F910E0BE016023712386FBEE2452
:10053000E0F8F12C6E217F21441F4427441F4923FA
:1005400050E0CB0184239523892BF9F2992D9078E3
:100550008A2D8170892B9B2D9074892B9C2D9072F4
:10056000892B9D2D9071892B2230310511F123307B
:100570003105A1F02130310529F1813D09F452C046
:10058000E8F5813709F44CC0813BE1F489E3B0CF51
:100590005A9884CF599882CF5B9880CF813D09F4D7
:1005A00045C0F8F4813781F1813B09F0A0CF8DE39C
:1005B0009FCF813DE9F178F4813741F1813B71F7BB
:1005C00083E396CF813DB1F198F4813729F1813BE6
:1005D00081F786E38DCF813EE9F0803FF9F680E731
:1005E00087CF813EA9F0803F09F081CF83E680CF9D
:1005F000813EA1F0803FE9F683E77ACF803FA1F00A
:10060000813F01F787E374CF8BE272CF8DE270CF29
:100610008EE26ECF81E36CCF8AE26ACF84E368CF4B
:100620008FE266CF88E364CF82E662CF80E360CF5B
:1006300082E35ECF85E35CCF1F93CF93DF93182FC8
:1006400084E090E00E948D0BEC011A831B82812FC5
:1006500090E0880F991F880F991F0E948D0B998336
:100660008883CE01DF91CF911F9108951F93CF937F
:10067000DF93182F84E090E00E948D0BEC011A8329
:100680001B82812F90E00E948D0B99838883CE017D
:10069000DF91CF911F910895DC01ED91FC911197AD
:1006A00013968C91139791E0980F13969C9394E076
:1006B000899FE00DF11D1124408351836283738370
:1006C0000895DC01ED91FC91119713968C9113978D
:1006D00091E0980F13969C93E80FF11D60830895A5
:1006E000DC01ED91FC91119713969C911397915019
:1006F00013969C9384E0989FE00DF11D1124608176
:100700007181828193810895DC01ED91FC911197B3
:1007100013969C911397915013969C93E90FF11D9A
:1007200080810895DC0113969C9113978FEF890FB8
:10073000ED91FC911197925013969C9394E0899FB0
:10074000E00DF11D112460817181828193810895F2
:10075000DC0113969C911397ED91FC9111978EEF0C
:10076000890F13968C939150E90FF11D80810895A4
:100770007F928F929F92AF92BF92CF92DF92EF9231
:10078000FF920F931F93CF93DF935C01FC01919035
:100790008F01C0E0D0E0C12CD12C7601992009F462
:1007A00062C0FEE29F1609F120E030E040E251E431
:1007B000C701B6010E942E096B017C012196692DAB
:1007C00070E060537109072E000C880B990B0E9492
:1007D000A208A70196010E94C2076B017C01F801E3
:1007E00091908F01FEE29F12D9CFF501EC0FFD1F12
:1007F00071807720C1F12296CA0DDB1D812C912CCE
:1008000080E2A82E81E4B82E01E010E011C0B8010A
:10081000012E000C880B990B0E94A2089B01AC01D1
:1008200060E070E080E291E40E949B094B015C0172
:100830000F5F1F4F672D70E060537109072E000C8A
:10084000880B990B0E94A208A50194010E942E0812
:100850009B01AC01C701B6010E94C2076B017C017C
:1008600079907110D4CFC701B601DF91CF911F915C
:100870000F91FF90EF90DF90CF90BF90AF909F903F
:100880008F907F9008950F930B32C1F060F00D327E
:1008900031F00F3271F40E942E080F9108950E94DA
:1008A000C1070F9108950A3221F40E942E090F9179
:1008B000089560E070E0CB010F9108950E94C20797
:1008C0000F9108956F927F928F929F92AF92BF92F5
:1008D000CF92DF92EF92FF920F931F93CF93DF930C
:1008E000CDB7DEB7EC970FB6F894DEBF0FBECDBF25
:1008F0004E0123E3820E911C8AE0D4011D928A9559
:10090000E9F782E30E941C037C0182E30E94360324
:100910006C01FE0131963F0182E3DF011D928A9551
:10092000E9F782E08BA788AB81E08CA78EA7D60180
:10093000ED91FC91119713968C91139791E0980F7C
:1009400013969C93E80FF11D108228988FE00E9467
:100950002A01A12CB12C0E942F02182F8336D9F323
:100960008823C9F391E08D3309F43DC181E012364B
:1009700009F431C1982381E0133709F432C1892386
:1009800031F1103721F0289A812F0E942A01812FFE
:100990008D7F8D3209F485C086ED810F823008F499
:1009A00080C0133709F477C1103709F4E9C1123652
:1009B00009F427C1F401EA0DFB1D1083F5013196FE
:1009C0005F010E942F02182F833651F6C4CF1D33CA
:1009D000F1F628988CE00E942A01F401EA0DFB1D33
:1009E0001082C4010E94B803F701A081B181238164
:1009F00031E0320F0FC0ED3209F428C1EF3209F0B7
:100A000021C10E942E08F701338121E0230FA0812C
:100A1000B1813E5F3383FD0134E0239FE00DF11D82
:100A200011246083718382839383F70183818230F1
:100A300008F40FC12FEF280F9EEF980FF701938353
:100A4000FD0134E0239FE00DF11D1124208131814F
:100A5000428153818350F7018383FD0184E0989F95
:100A6000E00DF11D11246081718182819381F60175
:100A7000B3811FEF1B0FA080B180B250B383F5018B
:100A8000E10FF11DE081D60113961C93EB3209F4BE
:100A9000D6C008F0B0CFEA3209F0D4C00E942E09C7
:100AA000B2CFF401EA0DFB1D1082C4010E94B8030D
:100AB000D701ED91FC91119713962C91139731E08A
:100AC000320F13963C93B4E02B9FE00DF11D1124DF
:100AD0006083718382839383F301E10FF11D208191
:100AE000D601ED91FC91119713969C9113978FEF7E
:100AF000890F13968C93E80FF11D8081D301A80F05
:100B0000B11D8C91281708F070C0F70183819FEF09
:100B1000980F0190F081E02D2EEF280FD70113964A
:100B20002C93DF0124E0929FA00DB11D11242D9183
:100B30003D914D915C919DEF980F8450D701139694
:100B40008C93B4E09B9FE00DF11D112460817181B5
:100B500082819381F601B3800190F081E02DAEEFA8
:100B6000AA2EAB0CD6011396AC92AFEFAB0DEA0FE9
:100B7000F11DE081EB3209F45CC0F0F1ED3209F4D3
:100B80005BC0EF3209F051C00E942E08D701ED91F1
:100B9000FC91119713962C91139731E0320F139615
:100BA0003C93B4E02B9FE00DF11D11246083718311
:100BB00082839383D601ED91FC91119713968C91CA
:100BC000139791E0980F13969C93E80FF11D1083F3
:100BD000A12CB12CC0CE80E0982381E0133709F01E
:100BE000CECE80E0CCCE90E0C1CED60113969C93C1
:100BF0001083A12CB12CAFCEEA32B9F40E942E0999
:100C0000C5CFF1E0AF1AB108F401EA0DFB1D108267
:100C1000289880E10E942A01289A80E20E942A01F5
:100C2000289880E10E942A0196CE60E070E0CB0116
:100C3000ADCF0E94C207AACF0E94C107A7CF0E94D2
:100C4000C207E1CE60E070E0CB01DDCE0E94C107BB
:100C5000DACE8150F7018383FD0124E0829FE00D0D
:100C6000F11D11246081718182819381EC960FB610
:100C7000F894DEBF0FBECDBFDF91CF911F910F91D2
:100C8000FF90EF90DF90CF90BF90AF909F908F90AC
:100C90007F906F90089507E011E083E7289A0E9403
:100CA0002A01F80181918F018111F8CF0E942F0252
:100CB000182F8823D9F391E0803739F181E01D3373
:100CC00041F1982381E0123649F1982381E0212FE8
:100CD0002D7F2D3251F1892359F186ED810F82301C
:100CE00038F1289A812F0E942A01F401EA0DFB1D98
:100CF000108395012F5F3F4F59010E942F02182F3B
:100D00008823A1F291E08037C9F690E081E01D339D
:100D1000C1F680E0982381E01236B9F680E098238E
:100D200081E0212F2D7F2D32B1F680E08923A9F6B5
:100D30001D3309F0BBCF289A89E20E942A01289826
:100D40008CE00E942A01F401EA0DFB1D1082C4010F
:100D50000E94B803EC960FB6F894DEBF0FBECDBF6D
:100D6000DF91CF911F910F91FF90EF90DF90CF9087
:100D7000BF90AF909F908F907F906F900C94F109EF
:100D80000DE011E081E6289A0E942A01D8018D9198
:100D90008D018111F8CFA80CB91C0E942F02882365
:100DA000E1F321E08D33F9F091E0823601F129235E
:100DB00091E0833709F1292391E0382F3D7F3D32BF
:100DC00011F1922319F196ED980F9230F8F0F50198
:100DD0008083289A0E942A010E942F028823E9F228
:100DE00021E08D3309F720E091E0823601F790E0B1
:100DF000292391E08337F9F690E0292391E0382FF9
:100E00003D7F3D32F1F690E09223E9F68D3329F6ED
:100E1000C4010E94B8036B017C0100E111E080E293
:100E2000289A0E942A01D8018D918D018111F8CF55
:100E30000E942F028823E1F321E08D33F1F091E04D
:100E40008236F9F0292391E0833701F1292391E0DB
:100E5000382F3D7F3D3209F1922311F196ED980F25
:100E60009230F0F08BAB289A0E942A010E942F0248
:100E70008823F1F221E08D3311F720E091E08236F2
:100E800009F790E0292391E0833701F790E02923C7
:100E900091E0382F3D7F3D32F9F690E09223F1F654
:100EA0008D3331F628988CE00E942A01C4010E94FB
:100EB000B8039B01AC01C701B601EC960FB6F894DC
:100EC000DEBF0FBECDBFDF91CF911F910F91FF907D
:100ED000EF90DF90CF90BF90AF909F908F907F90DA
:100EE0006F900C949B09CF93DF938FEF84B90E948E
:100EF0003C01289881E00E942A018FED9EE2019733
:100F0000F1F700C000000E941C02C5E1D1E080E5BD
:100F1000289A0E942A0189918111FACF289880ECA1
:100F20000E942A01C8E2D1E083E4289A0E942A01A3
:100F300089918111FACF81E291E00E94A101289864
:100F400081E00E942A018FED9EE20197F1F700C037
:100F50000000DF91CF9108950E947307289881E0E7
:100F60000E942A018FED9EE20197F1F700C0000078
:100F70000E9462040E94BA010E942F028336E1F7A8
:100F8000EDCF5058BB27AA270E94D9070C94F4082C
:100F90000E94E60838F00E94ED0820F039F49F3FE7
:100FA00019F426F40C94E3080EF4E095E7FB0C9496
:100FB000DD08E92F0E94050958F3BA176207730785
:100FC0008407950720F079F4A6F50C9427090EF410
:100FD000E0950B2EBA2FA02D0B01B90190010C0149
:100FE000CA01A0011124FF27591B99F0593F50F461
:100FF000503E68F11A16F040A22F232F342F4427B9
:10100000585FF3CF469537952795A795F0405395B0
:10101000C9F77EF41F16BA0B620B730B840BBAF080
:101020009150A1F0FF0FBB1F661F771F881FC2F7EB
:101030000EC0BA0F621F731F841F48F487957795FF
:101040006795B795F7959E3F08F0B0CF9395880FB9
:1010500008F09927EE0F9795879508950E9442080A
:101060000C94F4080E94ED0858F00E94E60840F045
:1010700029F45F3F29F00C94DD0851110C942809E4
:101080000C94E3080E94050968F39923B1F35523F2
:1010900091F3951B550BBB27AA276217730784078B
:1010A00038F09F5F5F4F220F331F441FAA1FA9F321
:1010B00035D00E2E3AF0E0E832D091505040E6950F
:1010C000001CCAF72BD0FE2F29D0660F771F881F70
:1010D000BB1F261737074807AB07B0E809F0BB0B63
:1010E000802DBF01FF2793585F4F3AF09E3F510577
:1010F00078F00C94DD080C9428095F3FE4F3983EE7
:10110000D4F3869577956795B795F7959F5FC9F75F
:10111000880F911D9695879597F90895E1E0660FE0
:10112000771F881FBB1F621773078407BA0720F059
:10113000621B730B840BBA0BEE1F88F7E0950895C2
:10114000E89409C097FB3EF4909580957095619561
:101150007F4F8F4F9F4F9923A9F0F92F96E9BB2717
:101160009395F695879577956795B795F111F8CF93
:10117000FAF4BB0F11F460FF1BC06F5F7F4F8F4FFE
:101180009F4F16C0882311F096E911C0772321F0F4
:101190009EE8872F762F05C0662371F096E8862F8C
:1011A00070E060E02AF09A95660F771F881FDAF7E3
:1011B000880F9695879597F9089597F99F6780E826
:1011C00070E060E008959FEF80EC089500240A9499
:1011D0001616170618060906089500240A94121612
:1011E0001306140605060895092E0394000C11F445
:1011F000882352F0BB0F40F4BF2B11F460FF04C0F2
:101200006F5F7F4F8F4F9F4F089557FD9058440F4A
:10121000551F59F05F3F71F04795880F97FB991F55
:1012200061F09F3F79F08795089512161306140612
:10123000551FF2CF4695F1DF08C01616170618069F
:10124000991FF1CF86957105610508940895E8947A
:10125000BB2766277727CB0197F908950E9441099C
:101260000C94F4080E94E60838F00E94ED0820F083
:10127000952311F00C94DD080C94E30811240C94D0
:1012800028090E94050970F3959FC1F3950F50E05E
:10129000551F629FF001729FBB27F00DB11D639F28
:1012A000AA27F00DB11DAA1F649F6627B00DA11DCE
:1012B000661F829F2227B00DA11D621F739FB00D74
:1012C000A11D621F839FA00D611D221F749F3327E4
:1012D000A00D611D231F849F600D211D822F762F7D
:1012E0006A2F11249F5750409AF0F1F088234AF05A
:1012F000EE0FFF1FBB1F661F771F881F91505040C6
:10130000A9F79E3F510580F00C94DD080C94280944
:101310005F3FE4F3983ED4F3869577956795B7954C
:10132000F795E7959F5FC1F7FE2B880F911D969566
:10133000879597F90895FA01EE0FFF1F3096210562
:101340003105A1F16115710561F48038BFE39B0798
:1013500049F168949038810561F08038BFEF9B07B0
:1013600041F099234AF5FF3FE1053105210519F1C7
:10137000E8940894E795D901AA2329F4AB2FBE2F4E
:10138000F85FD0F310C0FF5F70F4A695E0F7F7396F
:1013900050F019F0FF3A38F49F779F930DD00F90DB
:1013A00007FC9058089546F00C94E30860E070E064
:1013B00080E89FE308954FE79F775F934F933F93B4
:1013C0002F930E94F10A2F913F914F915F910E94BC
:1013D0002E090C94390A19F416F40C94E3080C94B1
:1013E0006B0A0E940D09B8F39923C9F3B6F39F570E
:1013F000550B87FF0E94790A0024A0E640EA90017D
:1014000080585695979528F4805C660F771F881F43
:1014100020F026173707480730F4621B730B840B44
:10142000202931294A2BA695179407942025312588
:101430004A2758F7660F771F881F20F026173707AF
:10144000480730F4620B730B840B200D311D411DD6
:10145000A09581F7B901842F9158880F96958795AB
:10146000089529F416F00C94DD080C9427090C94C7
:10147000E3080E940D09A8F39638A0F707F80F9229
:10148000E8942BE33AEA48EB5FE70E9444090F92A5
:101490000F920F924DB75EB70F920E94390BE8E69C
:1014A000F0E00E94800A4F915F91EF91FF91E595E6
:1014B000EE1FFF1F49F0FE57E0684427EE0F441F60
:1014C000FA95E1F74195550B0E94B30A0F9007FE7C
:1014D0000C94A70A08959F3F31F0915020F487950E
:1014E00077956795B795880F911D9695879597F98C
:1014F000089591505040660F771F881FD2F70895C6
:10150000DF93CF931F930F93FF92EF92DF927B01B4
:101510008C01689406C0DA2EEF010E944109FE0199
:10152000E894A5912591359145915591A6F3EF0148
:101530000E94D907FE019701A801DA9469F7DF90AC
:10154000EF90FF900F911F91CF91DF9108959B0134
:10155000AC0160E070E080E89FE30C942E080C94EE
:10156000DD080C946B0A0E940D09D8F39923C9F386
:10157000940F511DA3F39150504094F059F08823DB
:1015800032F0660F771F881F91505040C1F79E3F81
:1015900051052CF7880F911D9695879597F9089519
:1015A0005F3FACF0983E9CF0BB278695779567959A
:1015B000B79508F4B1609395C1F7BB0F58F711F4D4
:1015C00060FFE8CF6F5F7F4F8F4F9F4FE3CF0C944B
:1015D000280916F00C946B0A0C94E30868940C9498
:1015E000DD080E940D09A8F39923C1F3AEF3DF9340
:1015F000CF931F930F93FF92C92FDD2788232AF0E3
:101600002197660F771F881FDAF720E030E040E867
:101610005FEB9FE3883920F0803E38F021968F778A
:101620000E94C207E0E9F0E004C00E94C207EDEBAF
:10163000F0E00E94800A8B01BE01EC01FB2E6F5787
:1016400071097595771F880B990B0E94A20828E1F4
:1016500032E741E35FE30E944109AF2D9801AE01FB
:10166000FF900F911F91CF91DF910E94D9070C94A9
:10167000F408FA01DC01AA0FBB1F9B01AC01BF57A4
:1016800028F4222733274427507820C0B75190F4FC
:10169000AB2F0024469537952795011CA395D2F3CF
:1016A000002071F0220F331F441FB395DAF30ED0E0
:1016B0000C94C10761307105A0E88A07B94630F47F
:1016C0009B01AC016627772788279078309621F018
:1016D00020833183428353830895EF920F931F93A6
:1016E000CF93DF93E80147FD02C034E001C034E14D
:1016F000042E000C550B57FF03C05195419551091D
:10170000E32E022F242FAE010E94D30CCE01DF91D5
:10171000CF911F910F91EF9008950F931F93CF9347
:10172000DF938230910510F482E090E0E091320185
:10173000F091330120E030E0A0E0B0E0309719F103
:10174000408151810281138148175907C8F08417DD
:10175000950769F4109731F012960C93129713962F
:101760001C9327C0009332011093330122C021152E
:10177000310519F04217530718F49A01BD01EF0122
:10178000DF01F801DBCF21153105F9F0281B390BFA
:101790002430310580F48A819B816115710521F027
:1017A000FB019383828304C09093330180933201C1
:1017B000FE01329644C0FE01E20FF31F8193919324
:1017C00022503109398328833AC020913001309169
:1017D0003101232B41F42091020130910301309318
:1017E0003101209330012091000130910101211538
:1017F000310541F42DB73EB74091040150910501E8
:10180000241B350BE0913001F0913101E217F30711
:10181000A0F42E1B3F0B2817390778F0AC014E5F60
:101820005F4F2417350748F04E0F5F1F509331016B
:10183000409330018193919302C0E0E0F0E0CF014A
:10184000DF91CF911F910F910895CF93DF93009770
:1018500009F481C0FC01329713821282A0913201F7
:10186000B0913301109781F420813181820F931F51
:1018700020913001309131012817390751F5F0934B
:101880003101E093300167C0ED0120E030E0CE1778
:10189000DF0740F44A815B819E0141155105F1F05B
:1018A000EA01F5CFD383C28340815181840F951F14
:1018B000C817D90759F488819981840F951F02961A
:1018C000918380838A819B81938382832115310553
:1018D00029F4F0933301E09332013DC0E901FB8329
:1018E000EA8349915991C40FD51FEC17FD0761F4A4
:1018F00080819181840F951F0296E90199838883E5
:10190000828193819B838A83E0E0F0E012968D913F
:101910009C911397009719F0FD01DC01F7CF8D9191
:101920009C9111979D012E5F3F4F820F931F209135
:101930003001309131012817390769F4309729F4C3
:10194000109233011092320102C013821282B093BE
:101950003101A0933001DF91CF910895BB274A3028
:1019600031F4992322F4BDE2909581959F4F0C9418
:10197000BA0CBB27FB015527AA27880F991FAA1F5E
:10198000A41710F0A41B83955051B9F7A05DAA339A
:1019900008F0A95DA193009779F7B111B193119265
:1019A000CB010C94050FA9E0B0E0E9EDFCE00C944C
:1019B0001B0F6A01122FB02E2BE3201720F0FF24FB
:1019C000F394F00E02C02CE3F22E0F2D27E0AE01AF
:1019D0004F5F5F4F0E942D0EBC014981842F89709B
:1019E000813031F0E1FC06C0E0FE06C090E205C0A7
:1019F0009DE203C09BE201C090E05E2D507143FF69
:101A00003CC0911102C083E001C084E0811718F44A
:101A1000212F281B01C020E051110BC0F601822F9D
:101A200030E2882319F031938150FBCFC20ED11CD4
:101A300020E0992329F0D6019C93F60131966F019D
:101A4000C6010396E2FE0AC03EE4D6013C9341E49F
:101A500011964C93119712963C9306C03EE6F60100
:101A6000308341E641833283FC01322F40E233234D
:101A700009F442C041933150FACF42FF44C0911162
:101A800002C083E001C084E0811718F4212F281BD5
:101A900001C020E051110BC0F601822F30E28823F3
:101AA00019F031938150FBCFC20ED11C20E0992355
:101AB00029F0D6019C93F60131966F01C601039679
:101AC000E2FE0BC039E4D6013C933EE411963C9310
:101AD000119736E412963C9307C039E6F60130833D
:101AE0003EE6318336E63283FC01322F40E2332377
:101AF00019F041933150FBCFFC01E20FF11D108230
:101B00008EEF9FEFA6C021E030E0911102C020E0EF
:101B100030E0161617061CF4FB01319602C0E1E016
:101B2000F0E02E0F3F1FBB2021F0EB2DF0E03196AF
:101B300002C0E0E0F0E02E0F3F1FE12FF0E02E1793
:101B40003F071CF4121B212F01C020E08E2D88714D
:101B500059F4F601822F30E2882319F03193815035
:101B6000FBCFC20ED11C20E0992329F0D6019C9313
:101B7000F60131966F0151110BC0F601822F90E3EF
:101B8000882319F091938150FBCFC20ED11C20E025
:101B90000F2D060F9A81342F307144FF03C091330B
:101BA00009F40150101624F4093018F008E001C0BF
:101BB00001E0AB0177FF02C040E050E0FB01E41B15
:101BC000F50BA1E0B0E0AC0FBD1FEA0FFB1F8EE2EA
:101BD000A82E4B01801A91080B2D10E0119501954C
:101BE00011094F3FBFEF5B0721F4D601AC9211966C
:101BF0006D01641775072CF08416950614F4818125
:101C000001C080E3415051093196D60111967D0102
:101C10004017510724F0D6018C936701E2CF641777
:101C2000750739F4963320F4953319F4311101C056
:101C300081E3F6018083F701822F90E2882319F077
:101C400091938150FBCFF701E20FF11D108280E0EC
:101C500090E02996ECE00C94370F283008F027E04C
:101C60003327DA01990F311D87FD916000966105D8
:101C7000710539F432602E5F3D9330E32A95E1F728
:101C800008959F3F30F080387105610509F03C5F91
:101C90003C5F3D93913008F08068911DDF93CF93B6
:101CA0001F930F93FF92EF92192F987F9695E92F2C
:101CB00096959695E90FFF27EC5BFE4F9927332702
:101CC000EE24FF24A701E70105900894079428F467
:101CD000360FE71EF81E491F511D660F771F881F1C
:101CE000991F0694A1F70590079428F4E70EF81EB3
:101CF000491F561FC11D770F881F991F661F069425
:101D0000A1F70590079428F4F80E491F561FC71F26
:101D1000D11D880F991F661F771F0694A1F70590A4
:101D2000079420F4490F561FC71FD81F990F661F2D
:101D3000771F881F0694A9F784911095177041F0BA
:101D4000D695C79557954795F794E7941A95C1F797
:101D5000EAEEF0E0689415901591359165919591B2
:101D600005907FE27395E118F10A430B560BC90BFE
:101D7000D009C0F7E10CF11E431F561FC91FD01D2B
:101D80007EF4703311F48A95E6CFE894015030F078
:101D9000080F0AF40027021708F4202F2395022FBA
:101DA0007A3328F079E37D932A95E9F710C07D9383
:101DB0002A9589F606949795679537951795179400
:101DC000E118F10A430B560BC90BD00998F0239583
:101DD0007E9173957A3308F070E37C932013B8F703
:101DE0007E9170617D9330F0839571E37D9370E314
:101DF0002A95E1F71124EF90FF900F911F91CF9159
:101E0000DF91992787FD90950895DC01FC01672FEC
:101E100071917723E1F7329704C07C916D937083C1
:101E20006291AE17BF07C8F308952F923F924F9269
:101E30005F926F927F928F929F92AF92BF92CF925A
:101E4000DF92EF92FF920F931F93CF93DF93CDB763
:101E5000DEB7CA1BDB0B0FB6F894DEBF0FBECDBFDB
:101E600009942A88398848885F846E847D848C84AC
:101E70009B84AA84B984C884DF80EE80FD800C81B5
:101E80001B81AA81B981CE0FD11D0FB6F894DEBF98
:0C1E90000FBECDBFED010895F894FFCF08
:101E9C00000034012000737172742800613D002031
:101EAC0020623D00502E5372697661726468616ED7
:101EBC000020454531310043616C636920200000EE
:00000001FF
